Archive member included to satisfy reference by file (symbol)

c:/nxp/lpcxpresso_8.2.2_650/lpcxpresso/tools/bin/../lib/gcc/arm-none-eabi/5.4.1/../../../../arm-none-eabi/lib/armv6-m\libcr_c.a(__weak__main.o)
                              ./src/cr_startup_lpc11uxx.o (__main)
c:/nxp/lpcxpresso_8.2.2_650/lpcxpresso/tools/bin/../lib/gcc/arm-none-eabi/5.4.1/armv6-m\libcr_eabihelpers.a(division_32.o)
                              ./src/system_LPC11Uxx.o (__aeabi_uidiv)
c:/nxp/lpcxpresso_8.2.2_650/lpcxpresso/tools/bin/../lib/gcc/arm-none-eabi/5.4.1/armv6-m\libcr_eabihelpers.a(division_idiv0.o)
                              c:/nxp/lpcxpresso_8.2.2_650/lpcxpresso/tools/bin/../lib/gcc/arm-none-eabi/5.4.1/armv6-m\libcr_eabihelpers.a(division_32.o) (__aeabi_idiv0)

Allocating common symbols
Common symbol       size              file

UARTBuffer          0x40              ./src/uart.o
UARTStatus          0x4               ./src/uart.o

Discarded input sections

 .text          0x00000000        0x0 ./src/aeabi_romdiv_patch.o
 .data          0x00000000        0x0 ./src/aeabi_romdiv_patch.o
 .bss           0x00000000        0x0 ./src/aeabi_romdiv_patch.o
 .ARM.attributes
                0x00000000       0x21 ./src/aeabi_romdiv_patch.o
 .group         0x00000000        0x8 ./src/clkconfig.o
 .group         0x00000000        0x8 ./src/clkconfig.o
 .group         0x00000000        0x8 ./src/clkconfig.o
 .group         0x00000000        0x8 ./src/clkconfig.o
 .group         0x00000000        0x8 ./src/clkconfig.o
 .group         0x00000000        0x8 ./src/clkconfig.o
 .group         0x00000000        0x8 ./src/clkconfig.o
 .group         0x00000000        0x8 ./src/clkconfig.o
 .group         0x00000000        0x8 ./src/clkconfig.o
 .text          0x00000000        0x0 ./src/clkconfig.o
 .data          0x00000000        0x0 ./src/clkconfig.o
 .bss           0x00000000        0x0 ./src/clkconfig.o
 .text.WDT_CLK_Setup
Memory Configuration

Name             Origin             Length             Attributes
MFlash32         0x00000000         0x00008000         xr
RamLoc4          0x10000000         0x00001000         xrw
RamUsb2          0x20004000         0x00000800         xrw
*default*        0x00000000         0xffffffff

Linker script and memory map

LOAD ./src/aeabi_romdiv_patch.o
LOAD ./src/clkconfig.o
LOAD ./src/cr_startup_lpc11uxx.o
LOAD ./src/crp.o
LOAD ./src/elevator.o
LOAD ./src/elevator_actions.o
LOAD ./src/gpio.o
LOAD ./src/main.o
LOAD ./src/nmi.o
LOAD ./src/system_LPC11Uxx.o
LOAD ./src/timer16.o
LOAD ./src/timer32.o
LOAD ./src/uart.o
START GROUP
LOAD c:/nxp/lpcxpresso_8.2.2_650/lpcxpresso/tools/bin/../lib/gcc/arm-none-eabi/5.4.1/../../../../arm-none-eabi/lib/armv6-m\libcr_c.a
LOAD c:/nxp/lpcxpresso_8.2.2_650/lpcxpresso/tools/bin/../lib/gcc/arm-none-eabi/5.4.1/armv6-m\libcr_eabihelpers.a
END GROUP
                0x00000000                __base_MFlash32 = 0x0
                0x00000000                __base_Flash = 0x0
                0x00008000                __top_MFlash32 = 0x8000
                0x00008000                __top_Flash = 0x8000
                0x10000000                __base_RamLoc4 = 0x10000000
                0x10000000                __base_RAM = 0x10000000
                0x10001000                __top_RamLoc4 = 0x10001000
                0x10001000                __top_RAM = 0x10001000
                0x20004000                __base_RamUsb2 = 0x20004000
                0x20004000                __base_RAM2 = 0x20004000
                0x20004800                __top_RamUsb2 = 0x20004800
                0x20004800                __top_RAM2 = 0x20004800

.text           0x00000000      0xdd4
 FILL mask 0xff
                0x00000000                __vectors_start__ = ABSOLUTE (.)
 *(.isr_vector)
 .isr_vector    0x00000000       0xc0 ./src/cr_startup_lpc11uxx.o
                0x00000000                g_pfnVectors
                0x000000c0                . = ALIGN (0x4)
                0x000000c0                __section_table_start = .
                0x000000c0                __data_section_table = .
                0x000000c0        0x4 LONG 0xdd4 LOADADDR (.data)
                0x000000c4        0x4 LONG 0x10000000 ADDR (.data)
                0x000000c8        0x4 LONG 0x4 SIZEOF (.data)
                0x000000cc        0x4 LONG 0xdd4 LOADADDR (.data_RAM2)
                0x000000d0        0x4 LONG 0x20004000 ADDR (.data_RAM2)
                0x000000d4        0x4 LONG 0x0 SIZEOF (.data_RAM2)
                0x000000d8                __data_section_table_end = .
                0x000000d8                __bss_section_table = .
                0x000000d8        0x4 LONG 0x10000004 ADDR (.bss)
                0x000000dc        0x4 LONG 0xe8 SIZEOF (.bss)
                0x000000e0        0x4 LONG 0x20004000 ADDR (.bss_RAM2)
                0x000000e4        0x4 LONG 0x0 SIZEOF (.bss_RAM2)
                0x000000e8                __bss_section_table_end = .
                0x000000e8                __section_table_end = .
 *(.after_vectors*)
 .after_vectors
                0x000000e8      0x134 ./src/cr_startup_lpc11uxx.o
                0x000000e8                data_init
                0x00000128                bss_init
                0x0000015c                ResetISR
                0x000001ec                NMI_Handler
                0x000001f4                HardFault_Handler
                0x000001fc                SVC_Handler
                0x00000204                PendSV_Handler
                0x0000020c                SysTick_Handler
                0x00000214                USBWakeup_IRQHandler
                0x00000214                SSP0_IRQHandler
                0x00000214                IntDefaultHandler
                0x00000214                FLEX_INT1_IRQHandler
                0x00000214                FLEX_INT2_IRQHandler
                0x00000214                USB_FIQHandler
                0x00000214                ADC_IRQHandler
                0x00000214                SSP1_IRQHandler
                0x00000214                FLEX_INT3_IRQHandler
                0x00000214                USB_IRQHandler
                0x00000214                BOD_IRQHandler
                0x00000214                I2C_IRQHandler
                0x00000214                WDT_IRQHandler
                0x00000214                TIMER32_0_IRQHandler
                0x00000214                FLEX_INT0_IRQHandler
                0x00000214                FMC_IRQHandler
                0x000002fc                . = 0x2fc
 *fill*         0x0000021c       0xe0 ff
                0x000002fc                PROVIDE (__CRP_WORD_START__, .)
 *(.crp)
 .crp           0x000002fc        0x4 ./src/crp.o
                0x000002fc                CRP_WORD
                0x00000300                PROVIDE (__CRP_WORD_END__, .)
                0x00000001                ASSERT (! ((__CRP_WORD_START__ == __CRP_WORD_END__)), Linker CRP Enabled, but no CRP_WORD provided within application)
 *(.text*)
 .text.preload  0x00000300       0x10 ./src/elevator.o
                0x00000300                preload
 .text.elevator_dispatch
                0x00000310      0x114 ./src/elevator.o
                0x00000310                elevator_dispatch
 .text.goto_floor1
                0x00000424       0x50 ./src/elevator_actions.o
                0x00000424                goto_floor1
 .text.goto_floor2
                0x00000474       0x50 ./src/elevator_actions.o
                0x00000474                goto_floor2
 .text.goto_floor3
                0x000004c4       0x50 ./src/elevator_actions.o
                0x000004c4                goto_floor3
 .text.output_1
                0x00000514        0xc ./src/elevator_actions.o
                0x00000514                output_1
 .text.delay    0x00000520       0x28 ./src/elevator_actions.o
                0x00000520                delay
 .text.FLEX_INT4_IRQHandler
                0x00000548       0x98 ./src/gpio.o
                0x00000548                FLEX_INT4_IRQHandler
 .text.FLEX_INT5_IRQHandler
                0x000005e0       0x98 ./src/gpio.o
                0x000005e0                FLEX_INT5_IRQHandler
 .text.FLEX_INT6_IRQHandler
                0x00000678       0x98 ./src/gpio.o
                0x00000678                FLEX_INT6_IRQHandler
 .text.FLEX_INT7_IRQHandler
                0x00000710       0x98 ./src/gpio.o
                0x00000710                FLEX_INT7_IRQHandler
 .text.GINT0_IRQHandler
                0x000007a8       0x5c ./src/gpio.o
                0x000007a8                GINT0_IRQHandler
 .text.GINT1_IRQHandler
                0x00000804       0x5c ./src/gpio.o
                0x00000804                GINT1_IRQHandler
 .text.GPIOInit
                0x00000860       0x30 ./src/gpio.o
                0x00000860                GPIOInit
 .text.GPIOGetPinValue
                0x00000890       0x5c ./src/gpio.o
                0x00000890                GPIOGetPinValue
 .text.GPIOSetBitValue
                0x000008ec       0x54 ./src/gpio.o
                0x000008ec                GPIOSetBitValue
 .text.GPIOSetDir
                0x00000940       0x7c ./src/gpio.o
                0x00000940                GPIOSetDir
 .text.setPins  0x000009bc       0x70 ./src/main.o
                0x000009bc                setPins
 .text.defaultValue
                0x00000a2c       0x50 ./src/main.o
                0x00000a2c                defaultValue
 .text.main     0x00000a7c       0x70 ./src/main.o
                0x00000a7c                main
 .text.TIMER16_0_IRQHandler
                0x00000aec       0x80 ./src/timer16.o
                0x00000aec                TIMER16_0_IRQHandler
 .text.TIMER16_1_IRQHandler
                0x00000b6c       0x80 ./src/timer16.o
                0x00000b6c                TIMER16_1_IRQHandler
 .text.TIMER32_1_IRQHandler
                0x00000bec       0xd0 ./src/timer32.o
                0x00000bec                TIMER32_1_IRQHandler
 .text.UART_IRQHandler
                0x00000cbc      0x110 ./src/uart.o
                0x00000cbc                UART_IRQHandler
 .text.__weak_main
                0x00000dcc        0x8 c:/nxp/lpcxpresso_8.2.2_650/lpcxpresso/tools/bin/../lib/gcc/arm-none-eabi/5.4.1/../../../../arm-none-eabi/lib/armv6-m\libcr_c.a(__weak__main.o)
                0x00000dcc                __weak_main
                0x00000dcc                __main
 *(.rodata .rodata.* .constdata .constdata.*)
                0x00000dd4                . = ALIGN (0x4)

.glue_7         0x00000dd4        0x0
 .glue_7        0x00000dd4        0x0 linker stubs

.glue_7t        0x00000dd4        0x0
 .glue_7t       0x00000dd4        0x0 linker stubs

.vfp11_veneer   0x00000dd4        0x0
 .vfp11_veneer  0x00000dd4        0x0 linker stubs

.v4_bx          0x00000dd4        0x0
 .v4_bx         0x00000dd4        0x0 linker stubs

.iplt           0x00000dd4        0x0
 .iplt          0x00000dd4        0x0 ./src/clkconfig.o

.rel.dyn        0x00000dd4        0x0
 .rel.iplt      0x00000dd4        0x0 ./src/clkconfig.o

.ARM.extab
 *(.ARM.extab* .gnu.linkonce.armextab.*)
                0x00000dd4                __exidx_start = .

.ARM.exidx
 *(.ARM.exidx* .gnu.linkonce.armexidx.*)
                0x00000dd4                __exidx_end = .
                0x00000dd4                _etext = .

.data_RAM2      0x20004000        0x0 load address 0x00000dd4
 FILL mask 0xff
                [!provide]                PROVIDE (__start_data_RAM2, .)
 *(.ramfunc.$RAM2)
 *(.ramfunc.$RamUsb2)
 *(.data.$RAM2*)
 *(.data.$RamUsb2*)
                0x20004000                . = ALIGN (0x4)
                [!provide]                PROVIDE (__end_data_RAM2, .)

.uninit_RESERVED
                0x10000000        0x0
 *(.bss.$RESERVED*)
                0x10000000                . = ALIGN (0x4)
                0x10000000                _end_uninit_RESERVED = .

.data           0x10000000        0x4 load address 0x00000dd4
 FILL mask 0xff
                0x10000000                _data = .
 *(vtable)
 *(.ramfunc*)
 *(.data*)
 .data.currentState
                0x10000000        0x1 ./src/elevator.o
 .data.UARTTxEmpty
                0x10000001        0x1 ./src/uart.o
                0x10000001                UARTTxEmpty
                0x10000004                . = ALIGN (0x4)
 *fill*         0x10000002        0x2 ff
                0x10000004                _edata = .

.igot.plt       0x10000004        0x0 load address 0x00000dd8
 .igot.plt      0x10000004        0x0 ./src/clkconfig.o

.bss_RAM2       0x20004000        0x0
                [!provide]                PROVIDE (__start_bss_RAM2, .)
 *(.bss.$RAM2*)
 *(.bss.$RamUsb2*)
                0x20004000                . = ALIGN ((. != 0x0)?0x4:0x1)
                [!provide]                PROVIDE (__end_bss_RAM2, .)

.bss            0x10000004       0xe8
                0x10000004                _bss = .
 *(.bss*)
 .bss.inRef     0x10000004        0x4 ./src/elevator.o
 .bss.outRef    0x10000008        0x4 ./src/elevator.o
 .bss.flex_int4_counter
                0x1000000c        0x4 ./src/gpio.o
                0x1000000c                flex_int4_counter
 .bss.flex_int5_counter
                0x10000010        0x4 ./src/gpio.o
                0x10000010                flex_int5_counter
 .bss.flex_int6_counter
                0x10000014        0x4 ./src/gpio.o
                0x10000014                flex_int6_counter
 .bss.flex_int7_counter
                0x10000018        0x4 ./src/gpio.o
                0x10000018                flex_int7_counter
 .bss.gint0_counter
                0x1000001c        0x4 ./src/gpio.o
                0x1000001c                gint0_counter
 .bss.gint1_counter
                0x10000020        0x4 ./src/gpio.o
                0x10000020                gint1_counter
 .bss.flex_int4_level_counter
                0x10000024        0x4 ./src/gpio.o
                0x10000024                flex_int4_level_counter
 .bss.flex_int4_rising_edge_counter
                0x10000028        0x4 ./src/gpio.o
                0x10000028                flex_int4_rising_edge_counter
 .bss.flex_int4_falling_edge_counter
                0x1000002c        0x4 ./src/gpio.o
                0x1000002c                flex_int4_falling_edge_counter
 .bss.flex_int5_level_counter
                0x10000030        0x4 ./src/gpio.o
                0x10000030                flex_int5_level_counter
 .bss.flex_int5_rising_edge_counter
                0x10000034        0x4 ./src/gpio.o
                0x10000034                flex_int5_rising_edge_counter
 .bss.flex_int5_falling_edge_counter
                0x10000038        0x4 ./src/gpio.o
                0x10000038                flex_int5_falling_edge_counter
 .bss.flex_int6_level_counter
                0x1000003c        0x4 ./src/gpio.o
                0x1000003c                flex_int6_level_counter
 .bss.flex_int6_rising_edge_counter
                0x10000040        0x4 ./src/gpio.o
                0x10000040                flex_int6_rising_edge_counter
 .bss.flex_int6_falling_edge_counter
                0x10000044        0x4 ./src/gpio.o
                0x10000044                flex_int6_falling_edge_counter
 .bss.flex_int7_level_counter
                0x10000048        0x4 ./src/gpio.o
                0x10000048                flex_int7_level_counter
 .bss.flex_int7_rising_edge_counter
                0x1000004c        0x4 ./src/gpio.o
                0x1000004c                flex_int7_rising_edge_counter
 .bss.flex_int7_falling_edge_counter
                0x10000050        0x4 ./src/gpio.o
                0x10000050                flex_int7_falling_edge_counter
 .bss.gint0_level_counter
                0x10000054        0x4 ./src/gpio.o
                0x10000054                gint0_level_counter
 .bss.gint0_edge_counter
                0x10000058        0x4 ./src/gpio.o
                0x10000058                gint0_edge_counter
 .bss.gint1_level_counter
                0x1000005c        0x4 ./src/gpio.o
                0x1000005c                gint1_level_counter
 .bss.gint1_edge_counter
                0x10000060        0x4 ./src/gpio.o
                0x10000060                gint1_edge_counter
 .bss.timer16_0_counter
                0x10000064        0x8 ./src/timer16.o
                0x10000064                timer16_0_counter
 .bss.timer16_1_counter
                0x1000006c        0x8 ./src/timer16.o
                0x1000006c                timer16_1_counter
 .bss.timer16_0_capture
                0x10000074        0x8 ./src/timer16.o
                0x10000074                timer16_0_capture
 .bss.timer16_1_capture
                0x1000007c        0x8 ./src/timer16.o
                0x1000007c                timer16_1_capture
 .bss.timer32_1_counter
                0x10000084       0x10 ./src/timer32.o
                0x10000084                timer32_1_counter
 .bss.timer32_1_capture
                0x10000094       0x10 ./src/timer32.o
                0x10000094                timer32_1_capture
 .bss.UARTCount
                0x100000a4        0x4 ./src/uart.o
                0x100000a4                UARTCount
 *(COMMON)
 COMMON         0x100000a8       0x44 ./src/uart.o
                0x100000a8                UARTBuffer
                0x100000e8                UARTStatus
                0x100000ec                . = ALIGN (0x4)
                0x100000ec                _ebss = .
                [!provide]                PROVIDE (end, .)

.noinit_RAM2    0x20004000        0x0
 *(.noinit.$RAM2*)
 *(.noinit.$RamUsb2*)
                0x20004000                . = ALIGN (0x4)

.noinit         0x100000ec        0x0
                0x100000ec                _noinit = .
 *(.noinit*)
                0x100000ec                . = ALIGN (0x4)
                0x100000ec                _end_noinit = .
                [!provide]                PROVIDE (_pvHeapStart, DEFINED (__user_heap_base)?__user_heap_base:.)
                0x10001000                PROVIDE (_vStackTop, DEFINED (__user_stack_top)?__user_stack_top:(__top_RamLoc4 - 0x0))
                [!provide]                PROVIDE (__valid_user_code_checksum, (0x0 - (((_vStackTop + (ResetISR + 0x1)) + (DEFINED (NMI_Handler)?NMI_Handler:M0_NMI_Handler + 0x1)) + (DEFINED (HardFault_Handler)?HardFault_Handler:M0_HardFault_Handler + 0x1))))
OUTPUT(lab2_problema2_1.axf elf32-littlearm)

.debug_info     0x00000000     0x3f7e
 .debug_info    0x00000000      0x21c ./src/cr_startup_lpc11uxx.o
 .debug_info    0x0000021c       0x3f ./src/crp.o
 .debug_info    0x0000025b      0x1e4 ./src/elevator.o
 .debug_info    0x0000043f       0xd3 ./src/elevator_actions.o
 .debug_info    0x00000512      0xfc3 ./src/gpio.o
 .debug_info    0x000014d5      0x126 ./src/main.o
 .debug_info    0x000015fb      0xdf8 ./src/timer16.o
 .debug_info    0x000023f3      0xdd5 ./src/timer32.o
 .debug_info    0x000031c8      0xdb6 ./src/uart.o

.debug_abbrev   0x00000000      0xc3c
 .debug_abbrev  0x00000000       0xed ./src/cr_startup_lpc11uxx.o
 .debug_abbrev  0x000000ed       0x36 ./src/crp.o
 .debug_abbrev  0x00000123      0x106 ./src/elevator.o
 .debug_abbrev  0x00000229       0x94 ./src/elevator_actions.o
 .debug_abbrev  0x000002bd      0x240 ./src/gpio.o
 .debug_abbrev  0x000004fd       0xa4 ./src/main.o
 .debug_abbrev  0x000005a1      0x227 ./src/timer16.o
 .debug_abbrev  0x000007c8      0x236 ./src/timer32.o
 .debug_abbrev  0x000009fe      0x23e ./src/uart.o

.debug_aranges  0x00000000      0x310
 .debug_aranges
                0x00000000       0x60 ./src/cr_startup_lpc11uxx.o
 .debug_aranges
                0x00000060       0x18 ./src/crp.o
 .debug_aranges
                0x00000078       0x40 ./src/elevator.o
 .debug_aranges
                0x000000b8       0x40 ./src/elevator_actions.o
 .debug_aranges
                0x000000f8       0xa8 ./src/gpio.o
 .debug_aranges
                0x000001a0       0x30 ./src/main.o
 .debug_aranges
                0x000001d0       0x78 ./src/timer16.o
 .debug_aranges
                0x00000248       0x70 ./src/timer32.o
 .debug_aranges
                0x000002b8       0x58 ./src/uart.o

.debug_ranges   0x00000000      0x278
 .debug_ranges  0x00000000       0x50 ./src/cr_startup_lpc11uxx.o
 .debug_ranges  0x00000050       0x30 ./src/elevator.o
 .debug_ranges  0x00000080       0x30 ./src/elevator_actions.o
 .debug_ranges  0x000000b0       0x98 ./src/gpio.o
 .debug_ranges  0x00000148       0x20 ./src/main.o
 .debug_ranges  0x00000168       0x68 ./src/timer16.o
 .debug_ranges  0x000001d0       0x60 ./src/timer32.o
 .debug_ranges  0x00000230       0x48 ./src/uart.o

.debug_macro    0x00000000      0x55d
 .debug_macro   0x00000000       0x1d ./src/cr_startup_lpc11uxx.o
 .debug_macro   0x0000001d       0x1a ./src/crp.o
 .debug_macro   0x00000037       0x34 ./src/crp.o
 .debug_macro   0x0000006b       0x19 ./src/elevator.o
 .debug_macro   0x00000084       0x21 ./src/elevator_actions.o
 .debug_macro   0x000000a5       0x7f ./src/gpio.o
 .debug_macro   0x00000124       0x52 ./src/gpio.o
 .debug_macro   0x00000176       0xb1 ./src/main.o
 .debug_macro   0x00000227       0x10 ./src/main.o
 .debug_macro   0x00000237       0x10 ./src/main.o
 .debug_macro   0x00000247       0x88 ./src/timer16.o
 .debug_macro   0x000002cf       0x4c ./src/timer16.o
 .debug_macro   0x0000031b       0x88 ./src/timer32.o
 .debug_macro   0x000003a3       0x4c ./src/timer32.o
 .debug_macro   0x000003ef       0x88 ./src/uart.o
 .debug_macro   0x00000477       0x1c ./src/uart.o
 .debug_macro   0x00000493       0xca ./src/uart.o

.debug_line     0x00000000     0x11ed
 .debug_line    0x00000000       0xbc ./src/cr_startup_lpc11uxx.o
 .debug_line    0x000000bc       0x78 ./src/crp.o
 .debug_line    0x00000134       0xeb ./src/elevator.o
 .debug_line    0x0000021f       0xc0 ./src/elevator_actions.o
 .debug_line    0x000002df      0x3c3 ./src/gpio.o
 .debug_line    0x000006a2      0x1db ./src/main.o
 .debug_line    0x0000087d      0x353 ./src/timer16.o
 .debug_line    0x00000bd0      0x364 ./src/timer32.o
 .debug_line    0x00000f34      0x2b9 ./src/uart.o

.debug_str      0x00000000     0x674c
 .debug_str     0x00000000     0x250d ./src/cr_startup_lpc11uxx.o
                               0x2520 (size before relaxing)
 .debug_str     0x0000250d       0xe9 ./src/crp.o
                               0x246c (size before relaxing)
 .debug_str     0x000025f6       0xd4 ./src/elevator.o
                               0x246d (size before relaxing)
 .debug_str     0x000026ca       0x63 ./src/elevator_actions.o
                               0x23de (size before relaxing)
 .debug_str     0x0000272d     0x35d2 ./src/gpio.o
                               0x59fc (size before relaxing)
 .debug_str     0x00005cff       0x8d ./src/main.o
                               0x504f (size before relaxing)
 .debug_str     0x00005d8c      0x455 ./src/timer16.o
                               0x580c (size before relaxing)
 .debug_str     0x000061e1      0x15d ./src/timer32.o
                               0x57e6 (size before relaxing)
 .debug_str     0x0000633e      0x40e ./src/uart.o
                               0x59bd (size before relaxing)

.comment        0x00000000       0xdc
 .comment       0x00000000       0x6e ./src/cr_startup_lpc11uxx.o
                                 0x6f (size before relaxing)
 .comment       0x0000006e       0x6f ./src/crp.o
 .comment       0x0000006e       0x6f ./src/elevator.o
 .comment       0x0000006e       0x6f ./src/elevator_actions.o
 .comment       0x0000006e       0x6f ./src/gpio.o
 .comment       0x0000006e       0x6f ./src/main.o
 .comment       0x0000006e       0x6f ./src/timer16.o
 .comment       0x0000006e       0x6f ./src/timer32.o
 .comment       0x0000006e       0x6f ./src/uart.o
 .comment       0x0000006e       0x6e c:/nxp/lpcxpresso_8.2.2_650/lpcxpresso/tools/bin/../lib/gcc/arm-none-eabi/5.4.1/../../../../arm-none-eabi/lib/armv6-m\libcr_c.a(__weak__main.o)
                                 0x6f (size before relaxing)

.ARM.attributes
                0x00000000       0x2d
 .ARM.attributes
                0x00000000       0x31 ./src/cr_startup_lpc11uxx.o
 .ARM.attributes
                0x00000031       0x31 ./src/crp.o
 .ARM.attributes
                0x00000062       0x31 ./src/elevator.o
 .ARM.attributes
                0x00000093       0x31 ./src/elevator_actions.o
 .ARM.attributes
                0x000000c4       0x31 ./src/gpio.o
 .ARM.attributes
                0x000000f5       0x31 ./src/main.o
 .ARM.attributes
                0x00000126       0x31 ./src/timer16.o
 .ARM.attributes
                0x00000157       0x31 ./src/timer32.o
 .ARM.attributes
                0x00000188       0x31 ./src/uart.o
 .ARM.attributes
                0x000001b9       0x31 c:/nxp/lpcxpresso_8.2.2_650/lpcxpresso/tools/bin/../lib/gcc/arm-none-eabi/5.4.1/../../../../arm-none-eabi/lib/armv6-m\libcr_c.a(__weak__main.o)

.debug_frame    0x00000000      0x8fc
 .debug_frame   0x00000000      0x118 ./src/cr_startup_lpc11uxx.o
 .debug_frame   0x00000118       0xa4 ./src/elevator.o
 .debug_frame   0x000001bc       0xa0 ./src/elevator_actions.o
 .debug_frame   0x0000025c      0x234 ./src/gpio.o
 .debug_frame   0x00000490       0x68 ./src/main.o
 .debug_frame   0x000004f8      0x188 ./src/timer16.o
 .debug_frame   0x00000680      0x16c ./src/timer32.o
 .debug_frame   0x000007ec      0x110 ./src/uart.o
